{
  "contractName": "CompareCobbDouglas",
  "abi": [
    {
      "constant": true,
      "inputs": [
        {
          "name": "totalRewards",
          "type": "uint256"
        },
        {
          "name": "ownerFees",
          "type": "uint256"
        },
        {
          "name": "totalFees",
          "type": "uint256"
        },
        {
          "name": "ownerStake",
          "type": "uint256"
        },
        {
          "name": "totalStake",
          "type": "uint256"
        }
      ],
      "name": "callSuperSimplified",
      "outputs": [
        {
          "name": "",
          "type": "uint256"
        }
      ],
      "payable": false,
      "stateMutability": "pure",
      "type": "function"
    },
    {
      "constant": true,
      "inputs": [
        {
          "name": "totalRewards",
          "type": "uint256"
        },
        {
          "name": "ownerFees",
          "type": "uint256"
        },
        {
          "name": "totalFees",
          "type": "uint256"
        },
        {
          "name": "ownerStake",
          "type": "uint256"
        },
        {
          "name": "totalStake",
          "type": "uint256"
        }
      ],
      "name": "callFixedMath",
      "outputs": [
        {
          "name": "",
          "type": "uint256"
        }
      ],
      "payable": false,
      "stateMutability": "pure",
      "type": "function"
    }
  ],
  "bytecode": "0x608060405234801561001057600080fd5b506115ae806100206000396000f3fe608060405234801561001057600080fd5b50600436106100365760003560e01c8063829753db1461003b5780639d44407314610082575b600080fd5b610070600480360360a081101561005157600080fd5b50803590602081013590604081013590606081013590608001356100b7565b60408051918252519081900360200190f35b610070600480360360a081101561009857600080fd5b50803590602081013590604081013590606081013590608001356100d4565b60006100ca8686868686600160066100e3565b9695505050505050565b60006100ca86868686866101b1565b6000818311156100ef57fe5b60006100fb88886101e1565b9050600061010987876101e1565b9050811580610116575080155b156101275750600091506101a69050565b6000610132836102f0565b9050600061013f836102f0565b9050600081831361016d5761016661016161015a8585610a49565b8a8a610a58565b610a6f565b905061018b565b61017d61016161015a8486610a49565b9050610188816110b4565b90505b61019e61019882866110e6565b8e611112565b955050505050505b979650505050505050565b6000816101bf8486026111af565b0283876101cd8589026111af565b0202816101d657fe5b049695505050505050565b60008083121561025457604080517f08c379a0000000000000000000000000000000000000000000000000000000008152602060048083019190915260248201527f6e6f706500000000000000000000000000000000000000000000000000000000604482015290519081900360640190fd5b60008212156102c657604080517f08c379a0000000000000000000000000000000000000000000000000000000008152602060048083019190915260248201527f6e6f706500000000000000000000000000000000000000000000000000000000604482015290519081900360640190fd5b6102e96102e3846f800000000000000000000000000000006111d4565b8361125e565b9392505050565b60006f8000000000000000000000000000000082131561037357604080517f08c379a0000000000000000000000000000000000000000000000000000000008152602060048083019190915260248201527f6e6f706500000000000000000000000000000000000000000000000000000000604482015290519081900360640190fd5b600082136103e457604080517f08c379a0000000000000000000000000000000000000000000000000000000008152602060048083019190915260248201527f6e6f706500000000000000000000000000000000000000000000000000000000604482015290519081900360640190fd5b6f8000000000000000000000000000000082141561040457506000610a44565b640733048c5a821361043757507fffffffffffffffffffffffffffffffe010000000000000000000000000000000610a44565b60008060006a01c8464f761647600000008513610496577ffffffffffffffffffffffffffffffff000000000000000000000000000000000909301926a01c8464f761647600000006f8000000000000000000000000000000086020594505b6cf1aaddd7742e9000000000000085136104f4577ffffffffffffffffffffffffffffffff800000000000000000000000000000000909301926cf1aaddd7742e900000000000006f8000000000000000000000000000000086020594505b6e0afe10820813d780000000000000008513610556577ffffffffffffffffffffffffffffffffc00000000000000000000000000000000909301926e0afe10820813d780000000000000006f8000000000000000000000000000000086020594505b6f02582ab704279ec0000000000000000085136105ba577ffffffffffffffffffffffffffffffffe00000000000000000000000000000000909301926f02582ab704279ec000000000000000006f8000000000000000000000000000000086020594505b6f1152aaa3bf81cc000000000000000000851361061e577fffffffffffffffffffffffffffffffff00000000000000000000000000000000909301926f1152aaa3bf81cc0000000000000000006f8000000000000000000000000000000086020594505b6f2f16ac6c59de700000000000000000008513610682577fffffffffffffffffffffffffffffffff80000000000000000000000000000000909301926f2f16ac6c59de700000000000000000006f8000000000000000000000000000000086020594505b6f4da2cbf1be582800000000000000000085136106e6577fffffffffffffffffffffffffffffffffc0000000000000000000000000000000909301926f4da2cbf1be58280000000000000000006f8000000000000000000000000000000086020594505b6f63afbe7ab2082c000000000000000000851361074a577fffffffffffffffffffffffffffffffffe0000000000000000000000000000000909301926f63afbe7ab2082c0000000000000000006f8000000000000000000000000000000086020594505b6f70f5a893b608861e1f58934f97aea57d85136107ae577ffffffffffffffffffffffffffffffffff0000000000000000000000000000000909301926f70f5a893b608861e1f58934f97aea57d6f8000000000000000000000000000000086020594505b7fffffffffffffffffffffffffffffffff80000000000000000000000000000000850192508291506f80000000000000000000000000000000828002059050700100000000000000000000000000000000838103830205840193506f800000000000000000000000000000008183028161082457fe5b059150700200000000000000000000000000000000836faaaaaaaaaaaaaaaaaaaaaaaaaaaaaaaa0383028161085557fe5b05840193506f800000000000000000000000000000008183028161087557fe5b059150700300000000000000000000000000000000836f99999999999999999999999999999999038302816108a657fe5b05840193506f80000000000000000000000000000000818302816108c657fe5b059150700400000000000000000000000000000000836f92492492492492492492492492492492038302816108f757fe5b05840193506f800000000000000000000000000000008183028161091757fe5b059150700500000000000000000000000000000000836f8e38e38e38e38e38e38e38e38e38e38e0383028161094857fe5b05840193506f800000000000000000000000000000008183028161096857fe5b059150700600000000000000000000000000000000836f8ba2e8ba2e8ba2e8ba2e8ba2e8ba2e8b0383028161099957fe5b05840193506f80000000000000000000000000000000818302816109b957fe5b059150700700000000000000000000000000000000836f89d89d89d89d89d89d89d89d89d89d89038302816109ea57fe5b05840193506f8000000000000000000000000000000081830281610a0a57fe5b059150700800000000000000000000000000000000836f8888888888888888888888888888888803830281610a3b57fe5b05840193505050505b919050565b60006102e983836000036112d5565b6000610a676102e385856111d4565b949350505050565b60007fffffffffffffffffffffffffffffffe010000000000000000000000000000000821215610aa157506000610a44565b81610abd57506f80000000000000000000000000000000610a44565b6000821315610b2f57604080517f08c379a0000000000000000000000000000000000000000000000000000000008152602060048083019190915260248201527f6e6f706500000000000000000000000000000000000000000000000000000000604482015290519081900360640190fd5b6f800000000000000000000000000000006f1000000000000000000000000000000083078080028290056710e1b3be415a0000810293909301929091818302059050806705a0913f6b1e000002830192506f8000000000000000000000000000000082820281610b9b57fe5b05905080670168244fdac7800002830192506f8000000000000000000000000000000082820281610bc857fe5b05905080664807432bc1800002830192506f8000000000000000000000000000000082820281610bf457fe5b05905080660c0135dca0400002830192506f8000000000000000000000000000000082820281610c2057fe5b059050806601b707b1cdc00002830192506f8000000000000000000000000000000082820281610c4c57fe5b059050806536e0f639b80002830192506f8000000000000000000000000000000082820281610c7757fe5b05905080650618fee9f80002830192506f8000000000000000000000000000000082820281610ca257fe5b05905080649c197dcc0002830192506f8000000000000000000000000000000082820281610ccc57fe5b05905080640e30dce40002830192506f8000000000000000000000000000000082820281610cf657fe5b0590508064012ebd130002830192506f8000000000000000000000000000000082820281610d2057fe5b059050806317499f0002830192506f8000000000000000000000000000000082820281610d4957fe5b059050806301a9d48002830192506f8000000000000000000000000000000082820281610d7257fe5b05905080621c638002830192506f8000000000000000000000000000000082820281610d9a57fe5b059050806201c63802830192506f8000000000000000000000000000000082820281610dc257fe5b05905080611ab802830192506f8000000000000000000000000000000082820281610de957fe5b0590508061017c02830192506f8000000000000000000000000000000082820281610e1057fe5b05905080601402830192506f8000000000000000000000000000000082820281610e3657fe5b600095909503946721c3677c82b400009190059384010582016f8000000000000000000000000000000001929050701000000000000000000000000000000000841615610ea5577243cbaf42a000812488fc5c220ad7b97bf6e99e6cf1aaddd7742e56d32fb9f9974484020592505b700800000000000000000000000000000000841615610ee7577105d27a9f51c31b7c2f8038212a05747799916e0afe10820813d65dfe6a33c07f738f84020592505b700400000000000000000000000000000000841615610f2957701b4c902e273a58678d6d3bfdb93db96d026f02582ab704279e8efd15e0265855c47a84020592505b700200000000000000000000000000000000841615610f6b577003b1cc971a9bb5b9867477440d6d1577506f1152aaa3bf81cb9fdb76eae12d02957184020592505b700100000000000000000000000000000000841615610fad5770015bf0a8b1457695355fb8ac404e7a79e36f2f16ac6c59de6f8d5d6f63c1482a7c8684020592505b6f80000000000000000000000000000000841615610fed576fd3094c70f034de4b96ff7d5b6f99fcd86f4da2cbf1be5827f9eb3ad1aa9866ebb384020592505b6f4000000000000000000000000000000084161561102d576fa45af1e1f40c333b3de1db4dd55f29a76f63afbe7ab2082ba1a0ae5e4eb1b479dc84020592505b6f2000000000000000000000000000000084161561106d576f910b022db7ae67ce76b441c27035c6a16f70f5a893b608861e1f58934f97aea57d84020592505b6f100000000000000000000000000000008416156110ad576f88415abbe9a76bead8d00cf112e4d4a86f783eafef1c0a8f3978c7f81824d62ebf84020592505b5050919050565b60006110e07f40000000000000000000000000000000000000000000000000000000000000008361125e565b92915050565b60006f8000000000000000000000000000000061110384846111d4565b8161110a57fe5b059392505050565b60008082121561118557604080517f08c379a0000000000000000000000000000000000000000000000000000000008152602060048083019190915260248201527f6e6f706500000000000000000000000000000000000000000000000000000000604482015290519081900360640190fd5b600061119184846111d4565b9050600081136111a55760009150506110e0565b607f1c9392505050565b6000806111bd8360066113e8565b6103e8670de0b6b3a7640000909102049392505050565b6000826111e3575060006110e0565b50818102818382816111f157fe5b05146110e057604080517f08c379a000000000000000000000000000000000000000000000000000000000815260206004820152600660248201527f62696e5f6f700000000000000000000000000000000000000000000000000000604482015290519081900360640190fd5b6000816112cc57604080517f08c379a000000000000000000000000000000000000000000000000000000000815260206004820152600660248201527f62696e5f6f700000000000000000000000000000000000000000000000000000604482015290519081900360640190fd5b81838161110a57fe5b8181016000811380156112e85750600083125b80156112f45750600082125b1561136057604080517f08c379a000000000000000000000000000000000000000000000000000000000815260206004820152600660248201527f62696e5f6f700000000000000000000000000000000000000000000000000000604482015290519081900360640190fd5b6000811280156113705750600083135b801561137c5750600082135b156110e057604080517f08c379a000000000000000000000000000000000000000000000000000000000815260206004820152600660248201527f62696e5f6f700000000000000000000000000000000000000000000000000000604482015290519081900360640190fd5b6000700100000000000000000000000000000000608060405b801561145f578583116001811461141d57801561142b57611455565b92811c929181900391611455565b8684106001811461144157801561144e57611453565b93821b9392820192611453565b600092505b505b5060029004611401565b50848211156114925760019190911c907fffffffffffffffffffffffffffffffffffffffffffffffffffffffffffffffff015b83810460020a6114a28582611514565b86036114b16001870383611514565b86028082048301955060015b801561150f576114d06001890388611514565b808a0488811080156114e957600181146114fa57611507565b8a8a8303049350838a019950611507565b8a828b03049350838a0399505b5050506114bd565b61156d565b7fffffffffffffffffffffffffffffffffffffffffffffffffffffffffffffffff90910190805b82156110e0577fffffffffffffffffffffffffffffffffffffffffffffffffffffffffffffffff90920191810261153b565b5050505050509291505056fea265627a7a7230582063bca20e0b60f6e5ab2e8f4d3403bb6e58fec0119cbfc8a8748d092b8810dca764736f6c634300050a0032",
  "source": "pragma solidity ^0.5.9;\n\nimport \"./LibFixedMath.sol\";\nimport \"./LibFeeMath.sol\";\n\ncontract CompareCobbDouglas {\n    function callSuperSimplified(\n        uint256 totalRewards,\n        uint256 ownerFees,\n        uint256 totalFees,\n        uint256 ownerStake,\n        uint256 totalStake\n    ) external pure returns (uint256) {\n        return LibFeeMath._cobbDouglasSuperSimplified(\n            totalRewards,\n            ownerFees,\n            totalFees,\n            ownerStake,\n            totalStake\n        );\n    }\n\n    function callFixedMath(\n        uint256 totalRewards,\n        uint256 ownerFees,\n        uint256 totalFees,\n        uint256 ownerStake,\n        uint256 totalStake\n    ) external pure returns (uint256) {\n        return _cobbDouglas(\n            totalRewards,\n            ownerFees,\n            totalFees,\n            ownerStake,\n            totalStake,\n            1,\n            6\n        );\n    }\n\n    function _cobbDouglas(\n        uint256 totalRewards,\n        uint256 ownerFees,\n        uint256 totalFees,\n        uint256 ownerStake,\n        uint256 totalStake,\n        uint256 alphaNumerator,\n        uint256 alphaDenominator\n    )\n        internal\n        pure\n        returns (uint256 ownerRewards)\n    {\n        assert(alphaNumerator <= alphaDenominator);\n        int256 feeRatio = LibFixedMath._toFixed(ownerFees, totalFees);\n        int256 stakeRatio = LibFixedMath._toFixed(ownerStake, totalStake);\n        if (feeRatio == 0 || stakeRatio == 0) {\n            return ownerRewards = 0;\n        }\n\n        // The cobb-doublas function has the form:\n        // totalRewards * feeRatio ^ alpha * stakeRatio ^ (1-alpha)\n        // We instead use:\n        // totalRewards * stakeRatio * e^(alpha * (ln(feeRatio) - ln(stakeRatio)))\n\n        // Compute e^(alpha * (ln(feeRatio) - ln(stakeRatio)))\n        int256 logFeeRatio = LibFixedMath._ln(feeRatio);\n        int256 logStakeRatio = LibFixedMath._ln(stakeRatio);\n        int256 n;\n        if (logFeeRatio <= logStakeRatio) {\n            n = LibFixedMath._exp(\n                LibFixedMath._mulDiv(\n                    LibFixedMath._sub(logFeeRatio, logStakeRatio),\n                    int256(alphaNumerator),\n                    int256(alphaDenominator)\n                )\n            );\n        } else {\n            n = LibFixedMath._exp(\n                LibFixedMath._mulDiv(\n                    LibFixedMath._sub(logStakeRatio, logFeeRatio),\n                    int256(alphaNumerator),\n                    int256(alphaDenominator)\n                )\n            );\n            n = LibFixedMath._invert(n);\n        }\n        // Multiply the above with totalRewards * stakeRatio\n        ownerRewards = LibFixedMath._uintMul(\n            LibFixedMath._mul(n, stakeRatio),\n            totalRewards\n        );\n    }\n}\n",
  "sourcePath": "/home/cluracan/code/toybox/cobb-douglas-solidity/contracts/CompareCobbDouglas.sol",
  "compiler": {
    "name": "solc",
    "version": "0.5.10+commit.5a6ea5b1.Emscripten.clang"
  },
  "schemaVersion": "3.0.14",
  "updatedAt": "2019-08-30T14:51:58.356Z",
  "devdoc": {
    "methods": {}
  },
  "userdoc": {
    "methods": {}
  }
}